:020000022000DC
:1060000000000120756302005D6302005F6302000F
:106010006163020063630200656302000000000028
:1060200000000000000000000000000067630200A4
:1060300069630200000000006B6302006D630200F0
:106040005D8A02006F630200698E02006F630200C6
:106050006F6302006F630200198D02006F6302001C
:106060006F6302006F6302006F6302006F630200E0
:106070006F6302006F6302006F6302006F630200D0
:106080006F630200D97802006F6302006F63020041
:106090006F6302006F63020029BB02006F6302009E
:1060A0006F6302006F6302006F6302006F630200A0
:1060B0006F6302006F630200000000000000000038
:1060C0006F6302006F6302006F6302006F63020080
:1060D0006F6302006F6302006F6302000000000044
:1060E00000000000000000000000000000000000B0
:1060F00000000000000000000000000000000000A0
:10610000000000000000000000000000000000008F
:10611000000000000000000000000000000000007F
:10612000000000000000000000000000000000006F
:10613000000000000000000000000000000000005F
:10614000000000000000000000000000000000004F
:10615000000000000000000000000000000000003F
:10616000000000000000000000000000000000002F
:10617000000000000000000000000000000000001F
:10618000000000000000000000000000000000000F
:1061900000000000000000000000000000000000FF
:1061A00000000000000000000000000000000000EF
:1061B00000000000000000000000000000000000DF
:1061C00000000000000000000000000000000000CF
:1061D00000000000000000000000000000000000BF
:1061E00000000000000000000000000000000000AF
:1061F000000000000000000000000000000000009F
:10620000354936480A1A02D0072291438D4634494F
:1062100034480A1A06D00722914381F309880222E2
:1062200082F3148830483149314A00F044F831484B
:106230003149324A00F03FF831483249324A00F0E1
:106240003AF832483249334A00F035F83248334997
:10625000334A00F030F833483349344A00F02BF821
:1062600033483449344A00F026F83448344900228F
:1062700000F02CF833483449002200F027F8334866
:106280003349091A082902DB002202604160314AC1
:1062900090471F481F49884205D00268043003B464
:1062A000904703BCF7E700208646EC46002000211B
:1062B000294A9047FEE7884207D0521A05D0037852
:1062C00001300B700131013AF9D17047884202D098
:1062D00002700130FAE770470000012000E0002062
:1062E000000001200000012008DD0200282A002013
:1062F0004C300020D0630200D063020098C8020036
:1063000008DD0200282A0020282A0020D8C902001F
:10631000D8C90200D8C90200D8C90200D8C90200F1
:10632000D8C90200D8C90200D8C9020007DD02009E
:106330002CE302004C3000204C3000204C30002078
:10634000604000206040002060400020604000204D
:10635000606000209D630200C9A30200FEE7FEE723
:10636000FEE7FEE7FEE7FEE7FEE7FEE7FEE7FEE705
:1063700000F002B8FFF7FCBF0F484FF00701884359
:1063800085460E4880470E48016841F4700101605F
:10639000BFF34F8FBFF36F8FFFF732BF09480A4932
:1063A0000A4A884207D0521A05D0037801300B7090
:1063B0000131013AF9D1704700000120198402002F
:1063C00088ED00E0D8C90200282A0020282A0020F1
:1063D0007047000007B5044B0093044A402300F0C7
:1063E00032F803B05DF804FBF16302004D30002089
:1063F0002DE9F84388461446B2B10F4B0F4E0325E2
:10640000002743F00109224608EB0701002004F0B1
:1064100001F90744241A48B933782BB14FF47A4074
:10642000C847013D02D13570BDE8F88301233370C0
:10643000002CE8D1F8E700BFE0C902004C30002092
:10644000704704F01BB9F0B595B01D4616460846D6
:106450000C4601F0CBFD1A9B0D93CDE90865002594
:106460002B46082205A920460A958DF82C500C953C
:1064700001F0D9FD079B0293069B03939DF814300E
:106480008DF8115003F00302012A1DD1BDF814202C
:10649000059DC3F3C203C2F383168DF81030B2001A
:1064A00008230EA9204601F0BEFDC5F3952508ABD3
:1064B0000093324602AB0EA9284600F045FB204669
:1064C00001F098FD15B0F0BD022AF8D1BDF81650C4
:1064D000C3F3C203C5F389158DF810300827082DC2
:1064E0002E4628BF08263B4632460EA9204601F01C
:1064F0009AFDAD1B08AB02AA31460EA8374400F046
:1065000087FB002DEBD1DAE708B5FFF79AFF0448C7
:10651000042100F083FA034B01225A7108BD00BF29
:10652000C8C90200282A0020037813F0040216D0FC
:1065300003F00303012B03D0022B09D00120704785
:106540000A6800880232C0F3831002440A60F5E74B
:106550000B684288023303EB92130B60EEE71046A0
:10656000704700002DE9F04F87B000230446861CD9
:106570000DF107000F4615468DF8073001F03EF883
:10658000404A51683960936803F580735B1A9246FC
:1065900002F21C4702F5836902F21448B3421AD38F
:1065A0000020002D69D004F00F039B0143F0050388
:1065B00063F30F00DAF80430DAB203321E444AF80B
:1065C00022009DF80700CAF8046001F03BF80120A2
:1065D00007B0BDE8F08F0121384601F032FA484695
:1065E00001F047FA404601F044FADAF80800029058
:1065F000C0B203300AEB800002A9FFF795FF029BAF
:1066000030BBDAB20AEB8202D16803919A1C0133E3
:10661000DBB20AEB83030292D3F80CB001F0030360
:10662000012B22D0022B15D08346404601F024FADC
:1066300010B1029BCAF808305946384601F001FAF9
:10664000DAF80830DAF8042003F580739B1AA5E71E
:10665000D8B2CEE7BDF80E30C3F3891303334FEA47
:106660001B4B02EB93030293DFE7BDF80C30C3F33F
:1066700083134FEA1B4B1344F5E7A40544F00600CF
:1066800098E700BF60310020064B074810B5002294
:106690001A7001F064FC044610B9044801F022FEAF
:1066A000204610BD603100203CC902001CCA020017
:1066B00030B50A4C71B10A4A0A49121BD2080023AC
:1066C0009A4201D1002030BD31F82350854202D0DA
:1066D0000133F5E7034654F83300F4E7A4C8020099
:1066E0003CC90200282A0020094B013903EBC000F5
:1066F000032909D8DFE801F00A02040604207047E4
:106700000079704740797047002070470220704739
:10671000A4C80200034BD3E90130C31A58425841C0
:10672000704700BF603100202DE9F04186B0FFF7CF
:10673000F1FF0546002840F0E680744CC4F81804C8
:10674000BFF34F8FA3680293DBB2033304EB8300E4
:1067500002A9FFF7E9FE029B18B1D4F81824002A19
:1067600055D0DAB2991C013304EB8202DBB204EBA0
:106770008303D268DB68049302F00303022B0392C5
:1067800002914FD1BDF80E306148C3F38917502FE5
:106790003E4628BF502666F38F1306F10801ADF878
:1067A0000E3001F0F4FB0546002800F0978001F060
:1067B0001DFC002303A90822284601F02AFC0299A7
:1067C000CB43DBB20133C9B20331B6EB830F4FEADF
:1067D000830804EB810122D908234246A6EB080670
:1067E000284601F016FCF6B24A4908F10803324681
:1067F000284601F00EFC029B033703EB9707029734
:10680000D4F81834002B41D1D4F8106451E06268F8
:106810009A4299D8A260284606B0BDE8F0810823C4
:106820003246E5E7012B59D1BDF80C303848C3F3A7
:106830008311062928BF062161F3891302318900DB
:10684000ADF80C3001F0A3FB0546002846D001F05E
:10685000CDFB0023082203A9284601F0DAFB00261D
:10686000BDF80C20C2F38312B300964203F1080373
:10687000C6D202994A1CC9B20331029204EB8101CB
:106880000422284601F0C5FB0136E9E7284601F05D
:10689000B1FBFFF73FFF80F00100C5B2BBE7F36833
:1068A0005B7923B1336829461B6830469847F36803
:1068B0001E68002EF3D1284601F09CFB0DF1070065
:1068C0008DF8076000F09AFED4F818340BB9029BDB
:1068D000A3609DF8070000F0B5FEDAE7D4F8104495
:1068E00054B90D4B0D480E49C01AC008000440F0C1
:1068F000020000F05DF8CCE7236820469B689847CB
:10690000E3681C68ECE7002585E700BF60310020E4
:106910003CC902006C310020A4C80200CCC80200AF
:1069200004CA02002DE9F34704460E46924601A927
:10693000012218469946FFF715FE1B4F10B3019D23
:106940004FF00008AA1CC84508EB020123D11748E4
:10695000002101F053F880F31000000440EA1440D5
:10696000E4006B1C04F03804DBB2EDB244F0010427
:1069700007EB8303033544EA881444EA8624D8608D
:1069800047F825403B781BB1FFF7CEFE0028FBD12E
:1069900002B0BDE8F087C9B207EB81015AF8283090
:1069A000CB6008F10108CEE7603100207C35002083
:1069B00000231A46FFF7B6BF07B50123019201AACB
:1069C000FFF7B0FF03B05DF804FB07B5CDE9002386
:1069D00002236A46FFF7A6FF03B05DF804FB1FB56C
:1069E000CDE90123069B039301AA0323FFF79AFF36
:1069F00005B05DF804FB7FB5CDE90023089B029349
:106A0000099B03930A9B04930B9B05936A460623F9
:106A1000FFF788FF07B05DF804FB000030B50F49B1
:106A2000D1F8102403460020144634B9DC682071E4
:106A30004AB9C1F81034226030BDE4682579854236
:106A400006D02468F1E7D268116821601360F3E78B
:106A500001300A28E8D14FF0FF30EDE76031002027
:106A6000084A38B50123D2F8104413701D4604B902
:106A700038BDE3685D71236820465B689847E3682A
:106A80001C68F4E76031002007B503460846197A10
:106A9000052911D05B7A2BB1094A0A49019001F00E
:106AA0004EF801980849019001F049F8019803B0A7
:106AB0005DF804EB01F038B8002AF8D0F2E700BF27
:106AC00028CA02002DCA0200A2D1020030B5C38834
:106AD00085B004460D4633B1144A00921449154A54
:106AE000284601F02CF8217A05291DD0637A4BB194
:106AF000A088FFF7F9FD104B104953F820202846D5
:106B000001F01DF8227A0E4BA08853F82220039240
:106B10000021FFF7CDFD039A0A490346284605B038
:106B2000BDE8304001F00BB805B030BD28CA020006
:106B300038CA020030CA0200B4CA02002DCA0200DC
:106B4000D8CA020050CA02002DE9F04385B01F46A2
:106B50000C9D002395F80C902B7306460C4690462E
:106B600029463846FFF7B2FFB8F1060F09D8DFE82B
:106B700008F00412181F283340003146284600F060
:106B8000DEFF002229463846FFF77EFF85F80C908D
:106B900005B0BDE8F08322683146284600F0CFFFFB
:106BA000EFE7D4E900233146284600F0C8FFE8E7C4
:106BB000A36800933146D4E90023284600F0BFFFC4
:106BC000DFE7E3680193A36800933146D4E900232B
:106BD000284600F0B4FFD4E723690293E3680193E9
:106BE000A36800933146D4E90023284600F0A7FFAC
:106BF000C7E76369039323690293E3680193A3687A
:106C000000933146D4E90023284600F098FFB8E706
:106C100008292DE9F74F80460E4617461C463CD8FA
:106C2000002593F80C901D7319461046FFF74EFF90
:106C3000DFF888A0DFF888B0AE4231D918F8052017
:106C40005946204600F07BFF0135082DF4D1194943
:106C5000194DDFF870A0204600F071FF4FF0000BD7
:106C60005E4522D918F80B207E2A05D810460192DD
:106C700005F0C2F9019A00B92E225146204600F0D3
:106C80005EFF0BF1010BBBF1080FE9D10122214698
:106C90003846FFF7F9FE84F80C9003B0BDE8F08F9A
:106CA0005146204600F04BFFCEE72946204600F033
:106CB00046FFE6E764CA020062CA020060CA020038
:106CC0005ACA020066CA0200C30710B507D4F023EF
:106CD000054A4008145C23401943115410BD0901B2
:106CE000C9B20F23F4E700BF4836002030B5094B86
:106CF0001C78094B196800239C4202DC00221046D4
:106D000030BD11F83350854201EBC302F7D0013397
:106D1000F2E700BF183600205836002013B50446AD
:106D20000191FFF7E3FF38B143682BB10199204689
:106D300002B0BDE81040184702B010BD034B044834
:106D400019680022490800F05CBA00BF1C36002018
:106D50002036002010B5C0B2FFF7C8FF0446007807
:106D600001F0D0FF63785A1E53425341834208D149
:106D7000044BD3E90023134303D1BDE81040FFF7D0
:106D8000DDBF10BD4036002037B54308354AD35C1F
:106D9000C2074CBF1B0903F00F0304460D46042B2A
:106DA00035D8DFE803F003252C383C0079B3012106
:106DB000FFF78AFF00230DF107008DF8073000F080
:106DC0001DFC0120A4F12003C4F12001264A20FA71
:106DD00001F100FA03F30B43A040D2E90041204344
:106DE0000B43C2E900039DF8070000F02BFC0EE006
:106DF000002918BF02212046FFF766FF07E041B1D6
:106E00000321FFF761FF01212046FFF787FF03B051
:106E100030BD0121EFE70029F9D10421EBE709B1E9
:106E20000321E8E7FFF750FF29462046FFF776FFEA
:106E30000DF107008DF8075000F0E0FB0120A4F1F0
:106E40002003C4F12001084A20FA01F100FA03F3FB
:106E50000B43A040D2E9004124EA000021EA0303E9
:106E6000BFE700BF48360020403600202DE9F04142
:106E7000124E134F00243378A34208DC114BD3E9A0
:106E80000023134318D0BDE8F041FFF757BF3D681A
:106E900005EBC40815F8340001F034FF98F8013010
:106EA0005A1E53425341181A4142414115F83400C9
:106EB000FFF76AFF0134DEE7BDE8F08118360020F5
:106EC0005836002040360020092AF7B505460C4602
:106ED00016463CD901F056FED8B11E4B1E481D6027
:106EE0001E4B1F4F1C701F4B002110221E6005F00F
:106EF00032F91D4B00200021C3E90001013CE4B23E
:106F00000326FF2C0BD1194A1948002100F06EF915
:106F100003E001F0F9FD0028DFD003B0F0BD9DF8DB
:106F2000063015F834008DF8046005EBC40223F038
:106F300007038DF8063001A993788DF805303A469D
:106F400001F02AFE013CE4B20028DAD0E5E7072090
:106F5000E3E700BF583600204836002018360020EE
:106F6000556D02001C360020403600206D6E020078
:106F7000F8CA020070B5084D084E00242B789C42D8
:106F800001D3002070BD3368012113F8340001F0F3
:106F900075FE0134F2E700BF183600205836002095
:106FA0001FB50021039001AA44F20100CDE90111AF
:106FB00000F004F805B05DF804FB000010B572B6EF
:106FC000FFF74EFDFFF7B0FB0028FBD1104B114C33
:106FD0001149E41AE408240444F00100FFF7E8FC36
:106FE0000E4B1B68DB0700D500BE0D4944F00200C4
:106FF000FFF7DEFCBFF34F8F0A490B4BCA6802F460
:10700000E0621343CB60BFF34F8F00BFFDE700BFCB
:10701000A4C80200CCC80200FCCA0200F0ED00E0E7
:1070200008CB020000ED00E00400FA0549B152B1BE
:10703000531E1A4007D1826001608380C2601046EF
:1070400070470E2070470920704710B58468C268E9
:107050008388121B934208D3C26813400268D1543C
:10706000C3680133C360002010BD0420FCE78268C0
:10707000C3689A420AD08268838813400268D35C4E
:107080000B708368013383600020704705207047D0
:10709000D0E90223D1E90201994208BF90422CBFF6
:1070A000012000207047000008B50B4800F0FDFBF0
:1070B0000A4B0B49D3E900231218D1E9000143F12F
:1070C00000038B4208BF824203D212F1807243F167
:1070D00000031046194608BD302A00206036002003
:1070E000D836002037B505460C460A4801A900F0FD
:1070F00010FC60B10570446001A9064800F033FC43
:1071000018B1054800F0D6FB002003B030BD0420C4
:10711000FBE700BFC4360020302A002038B5184BEA
:107120001B78044613B90025284638BD0028FAD03C
:10713000037F03F0FF05002BF5D0FFF7B5FFD4E97F
:107140000223994208BF904214D3236903B92377DD
:10715000D4E90530984721690029E4D0237F03F062
:10716000FF05002BDFD0D4E90223521843F10003BE
:10717000C4E902230348214601F0D3F8D4E700BF55
:107180006836002024CB020013B5114B1149186852
:10719000019008231048582200F0A8FB044698B933
:1071A0000E4A0F4801A900F071FA044660B90C4874
:1071B000012100F05DFB01230A4A0948194600F04D
:1071C000BFFA094B01221A70204602B010BD00BF61
:1071D00020CB02006C360020C43600204D72020025
:1071E000302A0020FFFF7F00683600203AB1036894
:1071F0005A614A1E514251411961002070470720CF
:10720000704738B5037F04460D4683B98261FFF7A6
:107210004BFF2369401941F10001C4E9020103B1A8
:10722000256121460020BDE83840FFF75BBF002004
:1072300038BD0023014603770120FFF753BF00004C
:10724000014800F032BB00BF302A00202DE9F04F8A
:1072500085B0804600F014FB40B15A4AD2E90031B3
:1072600013F1807341F10001C2E900310021404671
:1072700000F015FB38B1544E336823B13068FFF786
:107280004DFF002333600121404600F008FB20B190
:10729000FFF70AFF4D4BC3E900014D484A4F4D4EE1
:1072A000DFF8389103A900F06EFB002845D1DFF824
:1072B0002491454EDFF828A1484601F048F833688C
:1072C000002875D07BB13368D0E90201D3E90223ED
:1072D000994208BF90422DD233681B7F1BB13168A1
:1072E000484601F01EF8484601F02BF8D0E902B3F9
:1072F00007460193FFF7D8FE019BBBEB000463EB4D
:107300000105012C75F1000345DBB4F5350F40D3C1
:10731000FFF796FF304A02444FF49603002150468F
:1073200000F02EFA00283ED1336813B9404600F031
:10733000FFF9376005B0BDE8F08F0378012B1DD051
:10734000022B09D14FF0000A304600F0FAFF002866
:1073500034D080F81CA0F7E73BB941680B7F23B914
:1073600001230B77304600F0DCFF03A9184800F03A
:1073700035FB03A9164800F006FB96E741683B6819
:10738000994202D100233B60EFE7304600F0E2FF74
:10739000EBE7BA68C0E70021504600F076FA3846BD
:1073A000FFF7BCFE01E00D28F9D00023336083E72E
:1073B000002BBFD1404600F0BFF9BBE7012389F89D
:1073C0000030D2E760360020E0360020D8360020BA
:1073D000C436002024CB0200FFFFB4006836002032
:1073E000302A00200648074A03780749D35C012267
:1073F00013B1043002F088B90C3001F051BF00BF66
:10740000382A0020543700200C3700200648074A4D
:1074100003780749D35C012213B1043002F020B98C
:107420000C3001F0EBBE00BF382A0020543700209A
:107430000D37002037B50578012D0BD0022D2ED049
:1074400065B91E491E48FFF712FE002832D1FFF72A
:10745000DDFF03E0037A1BB9FFF7C4FF03B030BDC3
:107460004368184C19782046FFF7EFFD80B18DF87E
:1074700000500190144B68461B689847A168E36868
:10748000A2885B1A9A42E7D2104B01221A70E5E7F4
:10749000A268E3689A42F1D08DF80000EAE7C36879
:1074A0008DF800500193FFF79DFF074B68461B685E
:1074B0009847D3E703238DF80030F6E70D37002017
:1074C000FC360020E8360020E4360020F8360020A4
:1074D000F0B51F46234B89B004461A600D460029BB
:1074E0003DD08A8820480968FFF7A0FD002834D1E4
:1074F000AA89A9681D48FFF799FD00282DD11C4EC7
:107500000FCE6D460FC596E80F0085E80F00636942
:107510000693237C174A18488DF81C70003B18BF4F
:1075200001238DF81430637C002B14BF0E2300233D
:107530008DF81530E3680293A368039323680193E1
:1075400069466368009301F00FFA30B90B4B18706D
:107550002368013301D0FFF745FF09B0F0BD0720D4
:10756000FBE700BFE4360020E8360020FC360020B0
:1075700030CB020035740200382A0020F836002093
:1075800070B5084D014608482E78FFF770FD044697
:1075900036B100232B70FFF725FF08B1FFF700FD80
:1075A000204670BDF8360020E836002010B50146B0
:1075B0000E48FFF74AFD0446A8B90D480D4A037866
:1075C000D35C63B1043002F093F860B90A4907480C
:1075D000FFF74DFD38B9BDE81040FFF717BF0C307D
:1075E00001F052FEF1E7204610BD00BFFC3600203E
:1075F000382A0020543700200D37002070B5EFF3F3
:10760000108672B60C4A946801239CB993600B4BA8
:107610000B4DD3F8801029401160C3F88050D3F887
:10762000841051604FF0FF32C3F88420047006B913
:1076300062B670BD0370FAE71037002000E100E089
:10764000FC06FFBD084B9A6810B55AB150B9EFF36C
:10765000108172B6054A1C6814605C6854609860BA
:1076600001B962B610BD00BF1037002000E100E094
:10767000435882B03BB10023435043580193019BD0
:10768000012002B070471846FBE70000F8B5204B18
:107690004479204D43F824201F4A204B05EBC404B5
:1076A0009B1A2279DB081B0432B143F002001C490B
:1076B000FFF77EF90820F8BD02680C88C2F808457B
:1076C00090F904608A7804795201002ED2B219DB55
:1076D00014498F1987F800230122760904F01F044A
:1076E00002FA04F441F82640427905EBC201012474
:1076F00045F832000C7143F003000B49FFF758F9CD
:107700000020D8E7094904F00F040A55ECE700BF50
:10771000243700201C370020A4C80200DCC8020067
:1077200050CB020000E100E072CB020014ED00E05B
:10773000036801221A607047036801225A6070478B
:1077400073B501F15005AD000068ADB24FF480345F
:107750008C400026C0F80843C0F84843465101F564
:10776000A8714559019522F07F42019D40F82120E2
:10777000C0F844430BB1C0F8044302B070BD000030
:107780002DE9F74F0D4622F07F4402684FF4803711
:1077900005F150068F408046B60002EB8500C2F826
:1077A0004873B6B2C2F80873D2F8041599464FF080
:1077B000000BD0F84035C0F8401542F806B05B1A0F
:1077C0009259009223F07F43012B009A4FEA850AD9
:1077D0000CD1264B4FF4806043F001039847D8F852
:1077E000003043F806B09B590193019BD8F8001074
:1077F000D1F80465C1F84473A31B23F07F43012B28
:107800001CD11A4B05F5A875013443F0010341F86A
:1078100025404FF480609847D8F80030D3F80435FD
:107820009E4209D1D8F800300020C3F84473C3F851
:10783000047303B0BDE8F08F0D20FAE78A44C9F164
:10784000FF13CAF84045D1F80405221A013A22F084
:107850007F4203F57F439342EED3002AE2D1013405
:10786000CAF84045D1F804359842DAE790CB0200D7
:1078700003680222C3F8442309B1C3F80423704704
:1078800000684FF48271FFF7F3BE4FF4803303FAC0
:1078900001F10368C3F84813C3F808137047503167
:1078A0008900006889B2FFF7E3BE0368D3F80405D6
:1078B0007047000090F90430002B09DB5A090121C0
:1078C00003F01F0301FA03F34032024941F822306A
:1078D000704700BF00E100E0024B034A1B681068DC
:1078E000184700BF243700201C37002010B561B1B5
:1078F000B2FBF3F403FB1424A4B244B9C0E90014AE
:1079000084608281C381204610BD0E20FCE70920DF
:10791000FAE737B550E8013F9DB2C4892544848910
:10792000A54228BF2D1B0489A54202BFBFF32F8F9C
:10793000002207E0C5EA030540E80154002CE9D124
:107940004FF001028DF803200193019B9DF8032065
:107950000B6002F0FF0322B10B880068184403B0EB
:1079600030BD1846FBE70A884B889A4209D150E897
:10797000012FC2EA024240E80123002BF7D1012087
:1079800070470020704737B550E8023F1FFAA3F553
:10799000C488A54202BFBFF32F8F00220DE0C48927
:1079A00025448489A54228BF2D1BC3EA054540E82C
:1079B0000254002CE8D14FF001028DF8032001930E
:1079C000019B9DF803200B6002F0FF0322B14B885E
:1079D0000068184403B030BD1846FBE70A884B889E
:1079E0009A4209D150E8022FC2EA224240E802231B
:1079F000002BF7D1012070470020704710B50346D7
:107A000053E8000F0A4643E8002494F0000FF7D132
:107A100010BD10B5034653E8002F42EA010043E8C9
:107A2000000494F0000FF6D110BD10B5034653E8E2
:107A3000000F00EA010243E8002494F0000FF6D1A1
:107A400010BD10B5034653E8002F02EB010043E8D8
:107A5000000494F0000FF6D110BD10B5034653E8B2
:107A6000002FA2EB010043E8000494F0000FF6D1D0
:107A700010BD0121FFF7CDBF0021FFF7D6BF10B524
:107A800090B1D0E9012301689B1ADBB20A60013B87
:107A9000DBB2FF2B026802D10020107110BD11680B
:107AA0004C1C14600B70F2E70E20F7E737B5054663
:107AB00000240DF107008DF80740FFF79FFD2A68AD
:107AC0006B68116899420ED9481E106011F8014C7C
:107AD000EB68298A01FB0434AB6811791B1ADBB20D
:107AE000994238BF13719DF80700FFF7ABFD2046A0
:107AF00003B030BD37B5054600230DF107000C4635
:107B00008DF80730FFF77AFD2A681368591C116059
:107B1000E968641A298AB4FBF1F41C709DF8070027
:107B2000FFF790FD03B030BD826810B504462AB15E
:107B300043690168006998470023A36010BD0EB433
:107B400003B5039921B104AB01AA019300F076F8C3
:107B500002B05DF804EB03B070470A2938B504465B
:107B60000D4602D10D21FFF7F8FFA3682268591CCA
:107B7000A160D554D4E901329A4204D32046BDE82D
:107B80003840FFF7D1BF38BD2DE9F84F9846DDE901
:107B90000A43154682460F460A464FF00109AA429B
:107BA0000FD2C14538BFC14613F0010B01D16CB9EA
:107BB00000240126B8F1010F1BD908F1FF386E43EC
:107BC000F8E709F10109B2FBF5F2E8E79B070ED5EA
:107BD000B8F1000F0CBF30262026A145E9D2013CA8
:107BE00031465046FFF7B9FF002CF6D1E0E72026DA
:107BF000F3E7B7FBF6F39D42E1D9DFF83C80B7FB32
:107C0000F6F3504618F8031006FB1377FFF7A5FFAD
:107C10003346AB42B6FBF5F6F1D2BBF1000F02D012
:107C20000CB1A14501D3BDE8F88F20215046013C9D
:107C3000FFF793FFF4E700BF96CB02002DE9F74F63
:107C4000054617468846002900F0428118F8011BB6
:107C500049B92B7B002B00F03B81284603B0BDE8DF
:107C6000F04FFFF761BF252940F0B780002698F854
:107C700000302D2B424608F1010823D0302B24D0B0
:107C80002B2B25D000242A2B02F1010123D13B68A4
:107C90001A1D1B683A601C440A4613782E2B26D105
:107CA00001324FF0000A104610F8011BA1F1300C10
:107CB000BCF1090F1DD80A2303FB0A13A3F1300AF4
:107CC0000246F0E746F00106D1E746F00206CEE7AD
:107CD00046F00406CBE711F8013CA3F13000092877
:107CE000DBD80A2202FB0434303C0A46CBE74FF0D3
:107CF000000A12F8011B01F0FB0068289046F8D03A
:107D0000782909D86F290CD8632962D022D825296F
:107D100063D0582900F0888098F80030002B95D166
:107D200097E770390829F7D801A353F821F000BF6D
:107D3000AB7E0200197D0200197D0200397E02002F
:107D4000197D0200177E0200197D0200197D0200D4
:107D5000297E0200642901D06929DDD13A68D2F870
:107D60000090111D89EAE9723960A2EBE9724FF0C7
:107D7000010B092A35DCD34538BFD3462CB1B9F104
:107D8000000F01DB720700D5013CB30702D5BAF141
:107D9000000F03D0F00701D44CBB0024B9F1000F51
:107DA0002DDAC9F100092D212846FFF7D6FE06F08D
:107DB0000302022A04D1BAF1000F01D11CBB002436
:107DC000CDE9004653460A2249462846FFF7DCFE25
:107DD000A2E73B681A1D19783A602846FFF7BDFEF6
:107DE0009AE70A230BF1010BB2FBF3F2C1E7A345BB
:107DF000D4D220212846013CFFF7AFFECCE7710723
:107E0000D5D52B21D0E7A345DAD230212846013C35
:107E1000FFF7A3FED2E73968CDE900460A1D3A60B4
:107E200053460A220968D0E739680A1D3A60CDE94D
:107E3000004653461022F5E73B681A1D3A6016F0DB
:107E40000106D3F8009028D1B9F1000F03D04846BD
:107E500004F0D6F90646B44200D904BB09F1FF3953
:107E600019F8011F00293FF457AF2846FFF775FEA8
:107E7000F6E728460136FFF770FE19F806100029CC
:107E8000F7D1A642BFF448AF002C3FF445AF202104
:107E90002846013CFFF761FEF3E70026EDE72021CD
:107EA0002846013CFFF759FED5E73B681A1D3A60AA
:107EB000302128461C68FFF750FE78212846FFF73E
:107EC0004CFE00220823CDE90032214610227CE737
:107ED00003B0BDE8F08F00BF2DE9F84FB0F806A061
:107EE0004579D2F800B09DF828900AFB05F5043DCD
:107EF00088460BEB0301A94203F1040488BFA5EBFC
:107F0000030BB4FBFAF607460AFB1644C2F800B0AE
:107F10004EB9AAEB04055D4528BF5D46BBF1000FD5
:107F200004D1BDE8F88F3F68013EF1E7043408EB67
:107F300006003C442A46B9F1000F0DD02146ABEBB8
:107F4000050B04F0DFF8DA452E443F6855464FF044
:107F5000000428BF5D46E1E701462046EFE7FFF752
:107F60008EBDF8B546790146721E05460023934240
:107F70002D6803D30024A64202D8F8BD0133F6E7EA
:107F80000F682846FFF7B6FD01343946F3E72DE9BF
:107F9000F843068ACD1C0746FFF788FD043E3544AA
:107FA0000446B5FBF6F5F0B14FF48073EDB2838073
:107FB000C680013D076081464FF00008A84512D2F7
:107FC0003846FFF773FD064648B1637901336371A4
:107FD00008F10108C9F8000007608146EEE7204675
:107FE000FFF7BFFF34462046BDE8F8830121043087
:107FF000FFF727BD10B5012104460430FFF72DFD22
:1080000010F0FF0F04D12046BDE81040FFF7A9BFD4
:1080100010BD1FB503920022009203AAFFF75CFF78
:1080200005B05DF804FB1FB503920122009203AA7C
:10803000FFF752FF05B05DF804FB33DF704741DF07
:1080400070470000064B10B500241C70054B1C60E7
:10805000BFF35F8F0449054800F04DF9204610BD7D
:108060003137002034370020B0CB02002837002001
:1080700007B500230DF107008DF80730FFF7BEFAB2
:10808000F1EE103A23F09F03E1EE103ABFF35F8F59
:10809000094B4022C3F884219DF80700FFF7D2FA6C
:1080A00003F028FD20B1FFF7CAFF03B05DF804FB21
:1080B00020BF40BF20BFF8E700E100E070B5264DCB
:1080C000044601212846FFF799FCBFF35F8F2E4637
:1080D00038B9042C0AD0214B1A781AB1BFF35F8F3C
:1080E000286070BD1E4A147001221A701D4C1C4D70
:1080F0006368BBB9FEF7B4FCFEF716FB0028FBD1A2
:10810000174B1B78023B012B14D8BFF34F8F164936
:10811000164BCA6802F4E0621343CB60BFF34F8F83
:1081200000BFFDE71B682878984788B1204600F01B
:10813000ECF8DDE703F0DEFC08B1FFF77EFF4FF05F
:1081400080430122C3F80025BFF34F8F20BFFDE716
:10815000BFF35F8F3060C4E7343700203137002031
:10816000303700202837002000ED00E00400FA0539
:10817000026813685268934291BFD01A8068013038
:10818000801888BFC01A7047036881681A685B68E6
:108190008B4234BF01330023D31A584258417047F1
:1081A000F7B5002304460DF107000D468DF80730A2
:1081B000FFF724FA2046FFF7E7FF10B1237C002BDE
:1081C0003CD12268A66853685168B14234BF01317E
:1081D0000021516030B11168A068814234BF013183
:1081E00000211160E2686068511E072920D8DFE88D
:1081F00001F004101F141F1F1F182A78C2542046B4
:10820000FFF7B6FF23689A68824200D29860002484
:1082100015E02A8820F81320F1E72A6840F8232087
:10822000EDE7D5E9006700EBC300C0E90067E6E7CA
:10823000294602FB030003F065FFE0E704249DF8F4
:108240000700FFF7FFF9204603B0F0BD0368186888
:108250005B68C31A58425841704773B500230546FE
:108260000DF107000C4616468DF80730FFF7C6F9EA
:108270002846FFF7EBFF002832D129680B682EB99A
:108280000A68A868824238BF561C0E60EA686968AE
:10829000501E07281ED8DFE800F0040E1D121D1D19
:1082A0001D16CB5C237000249DF80700FFF7CAF968
:1082B000204602B070BD31F813302380F3E751F847
:1082C00023302360EFE701EBC301D1E90023C4E9C8
:1082D0000023E8E703FB0211204603F013FFE2E767
:1082E0000524E1E7836800225A60C3E904229A600A
:1082F000DA601A6070470B684A684360934208BFAF
:108300000023016008BF43607047436843B10268BF
:10831000916852680B449342436004BF002343605A
:10832000704770B5446806460D46206818B1B368BA
:108330002946984718B923682B60256070BD2468CA
:10834000F3E74368186808B102681A607047436829
:10835000186870474368186800B97047884203D1AD
:1083600002681A600120704703460068F4E70000C5
:1083700010B50D49A1F59472914201D800200FE08B
:108380008C1AE30F03EBE4035B1002EBC30452F817
:108390003330834205D802D204F10802ECE760686A
:1083A00010BD2146E8E700BFBCD0020008B5FFF7CA
:1083B000DFFF024B002808BF184608BD7FCF020030
:1083C00010B50446C0B2FFF7F1F8204610BD00001A
:1083D000044B1868421C04BF034B1878831F584293
:1083E0005841704730010010E00F00F0074B1B7838
:1083F000062B09D1064B1B68C3F30313033B032B66
:1084000002D8044AD05C704700207047E00F00F0AB
:10841000E80F00F0C4D0020008B5FFF7D9FF28B17B
:10842000834B844A1B68C3F304231360FFF7DEFF0A
:1084300010B1814B814A1A60FFF7CAFF28B1804B07
:10844000804A1B68C3F342331360FFF7CFFF20B1AC
:108450007D4AD36823F08073D360FFF7B9FF40B142
:108460004FF080430022C3F80C21C3F81021C3F859
:108470003825FFF7BBFF10B1744B03221A60FFF7DA
:10848000B5FF40B1724B05221A6001229A670022A3
:108490009A603F225A606F4B1A68511C0BBF6E4B9B
:1084A0006E4B1A781B6802BF08331B68C3F30313B3
:1084B000062A4DD1033B032B03D8694AD35C002B1A
:1084C00046D04FF08052674BD2F80414C3F8201501
:1084D000D2F80814C3F82415D2F80C14C3F82815E0
:1084E000D2F81014C3F82C15D2F81414C3F83015B0
:1084F000D2F81814C3F83415D2F81C14C3F8401578
:10850000D2F82014C3F84415D2F82414C3F848153F
:10851000D2F82814C3F84C15D2F82C14C3F850150F
:10852000D2F83014C3F85415D2F83414C3F86015D7
:10853000D2F83814C3F86415D2F83C14C3F868159F
:10854000D2F84014C3F86C15D2F84424C3F870254F
:10855000FFF73EFF28B1444B444A1B6803F04F032A
:108560001360FFF735FF48B14FF08043D3F8002484
:10857000D20744BF6FF00102C3F80024354B1B68DB
:10858000062B0CD1354B1B68033B032B02D8384A12
:10859000D35C23B1374A136843F480631360364ACF
:1085A000D2F8883043F47003C2F88830BFF34F8F9D
:1085B000BFF36F8F4FF01023D3F80022002A03DBA4
:1085C000D3F80432002B2FDA2C4B0122C3F80425F8
:1085D000D3F80024002AFBD04FF010221521C2F856
:1085E0000012D3F80024002AFBD04FF010231522EC
:1085F000C3F80422214B1A46D3F800140029FBD0FB
:108600000021C3F80415D2F80034002BFBD0BFF3CF
:108610004F8F19491A4BCA6802F4E0621343CB60CA
:10862000BFF34F8F00BFFDE7164B174A1A6008BD16
:10863000240300104035014074C007400DF0ADBA6E
:10864000440200103C050040F0ED00E0A0050040B1
:108650001056004030010010E00F00F0340100100F
:10866000BCD0020000C0004058020010E40E0040E0
:10867000C0D002003C17004000ED00E000E00140E7
:108680000400FA054C2A00200090D003054A4FF060
:10869000A043105CD3F8043523FA00F0C04300F087
:1086A00001007047CCD00200044B1A5C01239340B8
:1086B0004FF0A042C2F80C35704700BFCCD002008A
:1086C000044B1A5C012393404FF0A042C2F80835D6
:1086D000704700BFCCD0020008B50020FFF7F0FFC4
:1086E0000120FFF7EDFF0220FFF7EAFFBDE8084099
:1086F0000320FFF7E5BF08B50020FFF7D5FF0120F5
:10870000FFF7D2FF0220FFF7CFFFBDE808400320AC
:10871000FFF7CABF074A4FF0A041105CD1F80435FB
:108720000122824022EA03001340C1F80805C1F883
:108730000C357047CCD00200054A4FF0A043105CC6
:10874000D3F8103523FA00F0C04300F00100704761
:10875000C8D002000D2809D00E2809D00F2809D052
:1087600010280CBF03204FF0FF30704700207047E7
:108770000120704702207047014B185C704700BF12
:10878000C8D00200C20708B501460CD54FF0A0437F
:108790000322C3F84427C3F84827C3F84C27C3F87B
:1087A0005027FFF799FF8B070AD54FF0A0430C2203
:1087B000C3F83427C3F83827C3F83C27C3F8402749
:1087C00008BD000038B5074C051E04F1080318BFAA
:1087D0001C4623682BB11A6822605B6828469847BC
:1087E000F7E738BD4037002020B9054B01225A7009
:1087F000FFF7E8BF012802D1014A9070F8E77047FF
:108800003837002020B9034B01225A70FFF7DABF36
:10881000704700BF3837002038B50E4C2378B3B905
:108820000D486360A3602361E36000F0E5F805464E
:1088300003F060F908B900F0EBF801232370074B4F
:10884000D3F800340BB10123A370284638BD852529
:10885000F5E700BF38370020E9870200000001403B
:1088600037B50D4C00230DF107008DF80730FEF7EA
:10887000C5FEE368013BE360E36833B9074BD3F817
:10888000005415B900F0D6F8A5709DF80700FEF762
:10889000D9FE03B030BD00BF3837002000000140D2
:1088A000012813B50CD0032820D038B9124B01226F
:1088B000C3F88020BFF34F8FBFF36F8F02B010BD9E
:1088C0000E4C00230DF107008DF80730FEF796FEE1
:1088D00023780BB9FFF7A0FFE3689DF80700013389
:1088E000E3600123A370FEF7ADFEE7E700F090F828
:1088F000FFF7B6FFE2E700BF00E100E038370020F5
:108900001FB503788DF800304368019383688DF8B4
:108910000830C368054A0393054B684653F8213075
:1089200052F82110984705B05DF804FB4C37002041
:10893000503700201FB503788DF80030436801934D
:1089400083688DF80830C368054A0393054B684671
:1089500053F8213052F82110984705B05DF804FB18
:108960004C37002050370020F0B5194B90F800C06C
:1089700091F81DE043F82C20164B16460A6943F87F
:108980002C20154B03F80CE00C4607460FCC89B0A1
:108990006D460FC594E80F0085E80F00CDF810C0B4
:1089A000BEF1000F09D0002E0C4A694608BF3246BE
:1089B000381D00F091FD09B0F0BD002E084A69464F
:1089C00008BF324607F10C0000F062FBF3E700BF7E
:1089D000503700204C370020543700200189020016
:1089E0003589020000F18040002382B003600368F3
:1089F0000193019B02B07047044A137923B9012106
:108A000010609180184670478520704758370020C5
:108A1000074B1A68D20704D4C02283F8002301222E
:108A20001A604FF080430122C3F81825704700BF39
:108A300000E100E04FF0804208B50223C2F808339D
:108A40004FF48270FFF7CEFF034B01211960D2F87B
:108A50001834DB03FBD408BD0C000040124B1B682C
:108A600010B573B14FF48070FFF7BCFF4FF0804337
:108A70000122C3F808230D4B587910B95A711B68AD
:108A800098470B4B1B6873B14FF48270FFF7AAFF36
:108A90004FF080430222C3F80823044BBDE8104086
:108AA0001B680120184710BD000100405837002006
:108AB0000401004000F1804000F5C040002382B076
:108AC000036003680193019B02B07047800000F1CE
:108AD000A040D0F8002722F44032C0F80027D0F898
:108AE000003743EA0141C0F800177047054B4FF0CB
:108AF000FF32072843F8202084BFC01880F84820A0
:108B0000704700BF6037002010B51A4C94F85830F9
:108B10006BBB4FF0FF3222FA03F1C90748BFE118DF
:108B200003F1010348BF81F83020202BF3D100214D
:108B3000C8B2FFF7DBFF01310C29F9D10422002173
:108B40000D4803F008FB0D4BC02283F8062340229A
:108B50001A604FF4BE70FFF7ADFF094B4FF00042B3
:108B6000C3F80423012384F85830002010BD0820E6
:108B7000FCE700BF60370020B437002000E100E0D0
:108B800000600040034B93F85800003818BF0120E4
:108B9000704700BF60370020F0B5364D2C1894F9AF
:108BA0003040002C64DA8C78C4F34004002C0BBFF6
:108BB000082300230C260826B34201D10420F0BD6F
:108BC00055F8237001373FD12E1845F8232086F839
:108BD000303014B9EA1882F848008A78540713D460
:108BE000D60733D5820002F1A042D2F8004724F024
:108BF0000204C2F80047204EC20800F00707012413
:108C0000BC40B75C3C43B4548A780C7812F0020242
:108C100025D09B0003F1804303F5C0430202D3F843
:108C2000101521F4473121F44071C3F810152404C4
:108C3000D3F8101502F4F85204F4403422430A43E6
:108C4000C3F810250020BAE70133B5E74C7800F5EA
:108C5000E0724FF0A046A40046F82240CBE7083B64
:108C60002B4493F8501041EA841483F85040E9E70C
:108C70000820A4E760370020B437002038B51F4C27
:108C8000251895F93020072A16DD224492F848303D
:108C90009B09032B0BD14FF0A043D3F81015C14013
:108CA00001F001010231BDE83840FFF70FBF012B91
:108CB0000CBF02210321F6E7D3B2072B1CD8930087
:108CC00003F1804303F5C043D3F8100540F00100E1
:108CD000C3F8100502F14000800080B2FFF7EAFE01
:108CE00051B195F9303054F823302BB1012303FAF8
:108CF00002F2034BC3F8042338BD00BF60370020E5
:108D0000006000404FF0A043D3F8103523FA00F084
:108D100000F00100704700002DE9F74F00244E4D90
:108D200001944FF48072012102F1804303F5C043A6
:108D300090B21B68012B06D1D5F804330B4202D048
:108D4000FFF7B8FE0C430432B2F5907F4FEA4101C1
:108D5000EAD1424B1B68012B0CD14FF4BE70FFF7D8
:108D6000A9FE4FF0A04344F00044D3F8202501921F
:108D7000C3F8202514F0FF0F1AD0394F0025012623
:108D8000344210D0AB0003F1804303F5C043D3F865
:108D90001005D3F8101557F8253023B1C1F3014160
:108DA000C0F3042098470135082D4FEA4606E7D165
:108DB000002C48DA2A4D4FF0A0482A4E4FF0000907
:108DC000012716F9013B5A1C31D0C3F3C20202A994
:108DD0000A44DCB212F8042C03F03F0A03F0070344
:108DE00007FA03F31A4222D00AF5E073504658F806
:108DF0002330C3F3014BBBF1020F0CBF032102214F
:108E0000FFF764FE07FA0AF3C8F8203505EB0A03FA
:108E100093F9303055F823304BB1A109032904D020
:108E2000BBF1020F12D1012901D15046984709F137
:108E30000109B9F1040FC4D1D8F820350193C8F85D
:108E40002035002BB9D103B0BDE8F08FBBF1030F83
:108E5000EDD10229E8E700BF006000407C610040DE
:108E600060370020B0370020014B1B68184700BF57
:108E7000BC3700200E4B984237B50C4602D000207C
:108E800003B030BD00230DF107008DF80730FEF769
:108E9000B5FB084B1D7915B901221C601A719DF8AC
:108EA0000700FEF7CFFB002DE9D01120E8E700BF57
:108EB00000200040BC3700200023435082B04358BC
:108EC0000193019B02B070470A4610B54FF48E71B2
:108ED000FFF7F2FF136A9168C95C136A01331362EA
:108EE000C0F81C1510BD024608B500684FF4927119
:108EF000FFF7E2FF4FF484711068FFF7DDFF13689E
:108F000001221A6008BD8B690A4610B54FF48471BE
:108F100023B9FFF7D1FFD0F8183510BDFFF7CCFF0C
:108F2000536AD168D0F81805C854536A01335362A4
:108F3000F3E700001FB501238DF80030044BCDE9A5
:108F40000110D3E900126846904705B05DF804FBB4
:108F5000C437002030B54C48D0F8043313F4007FF8
:108F600085B005464DD0D0F82431002B49D04FF4C0
:108F70009271FFF7A1FF4FF40173C0F80833434B20
:108F800093F829200AB9012242603F4902228DF854
:108F90000020D1F88024C1F8802403929A690292BB
:108FA000DA6801920022C3E906226846D3E900127A
:108FB00090473548D0F81C315BB134494A690B6A97
:108FC0009A420A464AD991F82830002B46D1FFF739
:108FD0007BFF2D48D0F844318BB14FF4A271FFF7DD
:108FE0006BFF2A4B93F829200AB1012202609A698B
:108FF0002AB10022586AD9689A61FFF79BFF05B031
:1090000030BDD5F804335B07D3D5D5F80831002B34
:10901000CFD01E4C1C482146FFF775FF636AA2693A
:109020009A422346C5D1E269E1684AB12369E36007
:109030000023606AA261E3616362FFF77BFFB8E728
:1090400094F829200AB901226A600F4A4FF401708E
:10905000C2F808030022586A9A61EEE70A484FF402
:109060008E71FFF729FF5369002BB2D0516902912D
:10907000002391688DF80030019153616846D2E970
:1090800000139847A5E700BF00200040C437002028
:109090002DE9F843544B057991462C2202FB053209
:1090A000064692F82A200C469846002A40F09880FE
:1090B0004E490068FFF7DEFE0746002840F0928028
:1090C00021683368481C0BD04FF0A04001228A4031
:1090D000C0F8082501F5E0724FF0030C40F822C0FB
:1090E0006068421C1FBF00F5E0724FF0A04C4FF0CB
:1090F000000E4CF822E0A269C3F8242594F814C0AD
:10910000627DBCF1010F4CEA0202C3F86C25C3F882
:109110001405C3F80C151DD1A1684A1C1FBF01F529
:10912000E0724FF0A0404FF0000C40F822C0E2681F
:10913000501C0BD04FF0A04C01209040CCF80805FB
:1091400002F5E0704FF0030E4CF820E0C3F808255C
:10915000C3F810152C236B4308EB0302C2F80490EC
:10916000226948F80320B9F1000F21D03068247F2C
:109170004FF48E71FFF7A0FE4FF4A2713068FFF735
:109180009BFE32681A4BC2F80433110B42F30732CC
:109190006301002ADBB21EDB1648841884F8003312
:1091A0000123520901F01F0103FA01F140F82210D6
:1091B00033680422C3F800252C2303FB0583002217
:1091C000C3E9062283F829205A61012283F82A2064
:1091D0003846BDE8F883084A01F00F015354E7E729
:1091E0000827F5E71127F3E7C4370020558F020061
:1091F0008000020000E100E014ED00E02DE9F047FE
:10920000204F90F804904FF02C0808FB0974054695
:109210006669002E34D162610068A16026624FF455
:109220008E7184F82860FFF747FE28680123836069
:109230002146FFF749FE6368A0468BB92868D4F839
:1092400014A0236A9A4511D82A68D2F81C31002B41
:10925000FBD00123D3602C2303FB097300225A6146
:109260003046BDE8F08794F828303BB9D0F81C317F
:10927000002BF8D04146FFF727FEE2E70F26EAE78A
:109280001126EDE7C43700200379044A2C2101FBA5
:1092900003235869003818BF01207047C4370020E5
:1092A0002DE9F843394F05792C2303FB0573064656
:1092B0005C6824B103684FF40170C3F808032C23E1
:1092C00003FB0573986950B1D86900283ED024B1DA
:1092D00033684FF40172C3F80423112433E09A6118
:1092E000D9605862D8612C2303FB057393F82930A9
:1092F0001BB910B93046FFF7F6FD4FF02C0909FBFA
:1093000005783068D8F80430002B34D14FF4A271BE
:10931000C146FFF7D1FD3068D0F82431D0F80821DC
:10932000D0F84441B2B90CB9002BF4D02C2202FB86
:1093300005750022AA6123BB2CBB95F82910336860
:109340000122B1B11A602046BDE8F8831961DA61E3
:109350000120C8E7002BE9D1002CE7D14946FFF7EF
:10936000D2FDD8F82430D8F818209A42D3D8234612
:10937000DCE75A60E7E74FF40173C0F804330024D8
:10938000E1E70324DFE70F24DDE700BFC437002057
:109390000023435082B043580193019B02B07047B1
:1093A0001FB501238DF80030044BCDE90110D3E93E
:1093B00000126846904705B05DF804FBF0370020C6
:1093C0007FB5434AD2F82461002E60D010464FF496
:1093D0009271FFF7DDFF02238DF80030D2F8803460
:1093E000C2F880340393D2F83C350293394BDA68E3
:1093F00001920022C3E906226846D3E90012904791
:109400003348D0F8443173B14FF4A271FFF7C0FF75
:10941000304B9A693AB10022C3E90622D968D0F8E4
:109420003C05FFF7BDFF2A48D0F82031ABB14FF41F
:109430009071FFF7ADFF0123C360264B5A6962B1FB
:10944000D0F84C150291002299688DF80020019106
:109450005A616846D3E9001290471D48D0F8583148
:109460009BB14FF4AC71FFF793FF1A4B5A6962B18D
:10947000D0F84C150291002299688DF800200191D6
:109480005A616846D3E90012904704B070BDD2F823
:109490001031002BB4D04FF488711046FFF778FFDD
:1094A0000C4BD2F83C0599698842A9D1DC69D9688E
:1094B00064B1D2F8005225F02005C2F800521A69B2
:1094C0009C61DA60DE61FFF76BFF99E79C61FAE768
:1094D00000200040F03700202DE9F8435B4B06796F
:1094E0009146242202FB0632044692F820200D46C3
:1094F0009846002A40F0A58055490068FFF7BAFC5D
:109500000746002840F09F8029682368481C0BD03C
:109510004FF0A04001228A40C0F8082501F5E07212
:109520004FF0030C40F822C06868421C1FBF00F5D2
:10953000E0724FF0A04C4FF0000E4CF822E0AA6908
:10954000C3F8242595F814C06A7DBCF1010F4CEADC
:109550000202C3F86C25C3F80C15C3F814051DD11D
:10956000A9684A1C1FBF01F5E0724FF0A0404FF000
:10957000000C40F822C0EA68501C0BD04FF0A04C01
:1095800001209040CCF8080502F5E0704FF0030E82
:109590004CF820E0C3F80825C3F8101524237343C2
:1095A00008EB0302C2F804902A6948F80320B9F1D5
:1095B000000F30D020682A7F4FF48871FFF7E8FE53
:1095C00020684FF49071FFF7E3FE20684FF492712A
:1095D000FFF7DEFE20684FF4A271FFF7D9FE4FF4CB
:1095E000AC712068FFF7D4FE23681A49C3F804134E
:1095F000190B43F307335201002BD2B21CDB164880
:10960000C51885F8002301225B0901F01F0102FA49
:1096100001F140F8231023680822C3F80025242311
:1096200003FB06830022C3E906225A61012283F864
:1096300020203846BDE8F883084B01F00F015A544A
:10964000E9E70827F5E71127F3E700BFF037002027
:10965000C19302001003420000E100E014ED00E0BD
:1096600001F06043B3F1005F2DE9F041064638D1C7
:109670001E4B0779242505FB073598466C69002C9D
:1096800031D16A610068A9604FF49071FFF780FEE4
:109690004FF4AC713068FFF77BFE33686A69A968E4
:1096A000C3F84415C3F8482501229A606A68AAB92C
:1096B000D3F82021D3F858411AB9002CF8D00F2440
:1096C00007E0002CFBD10122DA60D3F85821002AF0
:1096D000FBD0242303FB078700237B612046BDE8E2
:1096E000F0811024FAE71124F8E700BFF0370020DA
:1096F0000379044A242101FB03235869003818BF69
:1097000001207047F0370020F8B501F06043B3F155
:10971000005F04460F465ED10379304D242101FBE2
:109720000351496821B100684FF40476C0F808631A
:10973000242000FB03539E6956B1D869002839D014
:1097400021B123684FF40472C3F80423112030E0E0
:109750009A61DF60DE6120684FF48871FFF718FEC0
:1097600020684FF4A271FFF713FE2368C3F8347525
:10977000C3F8382516BB01221A602179242202FB86
:10978000015252680ABBD3F81041D3F84421D3F8F0
:109790002401144302D10028F5D02246242303FBE0
:1097A00001550023984218BF03209A42AB6118BFAD
:1097B0000F20F8BD1F61DA610126CCE7D3F8002243
:1097C00042F02002C3F80022D7E74FF40472C3F836
:1097D00004230020EDE71020EBE700BFF037002066
:1097E0000220FEF797BF00002DE9F04780460D46A6
:1097F000FEF7B0FF0328044610D8012D10D0022D2B
:1098000030D05DB91A48FDF714FD1A4B04EB440241
:1098100013449E78184B1B5DB34219D0BDE8F08706
:10982000144D00EB4002A918AE5C4A78470052B1D3
:10983000DFF84C900E484A464FF48041FDF7E1FCBA
:1098400008B989F800803B192B449A780A4B1A55BD
:10985000002EE3D0094B1B68002BDFD03046BDE85B
:10986000F047184700EB4004024804446678EFE7ED
:109870003838002078380020913800208C380020BB
:109880001438002000780221FFF7AEBF08B5094B5D
:109890001B7853B10020FEF713FF0120FEF710FFE5
:1098A000BDE808400320FEF70BBFBDE80840FEF707
:1098B00013BF00BF15380020F8B57B4C2378054650
:1098C0001BB100232370FFF7E1FF172D00F2888002
:1098D000DFE805F00C17174354657680888D888D76
:1098E000959A9A9A9A9AC4C9D1D9E4E4FFF7CEFF1F
:1098F0006E48FDF79EFC6E4B002204461A7020460F
:10990000F8BD0020FEF7C2FEF8B10020FEF7D8FE39
:10991000022D0CBF4FF4E1614FF47A61644B1D706E
:109920004FF400404FF47A740025E0FB01454FF4FA
:10993000FA6200232046294602F06AFA0022014614
:10994000BDE8F8405948FDF75CBCFEF7ADFE022DBE
:109950000CBFC8214FF4C871E0E70020FEF796FE67
:1099600040B10020FEF7ACFE4FF44871504B03228B
:109970001A70D5E7FEF798FEC821F7E70020FEF73A
:1099800085FE38B10020FEF79BFE4FF47A61484B0C
:109990000422EDE7FEF788FE4FF4C871F7E70020D8
:1099A000FEF774FE48B10020FEF78AFE404B052208
:1099B0001A7040F6CD410022C2E7FEF775FEF5E7CA
:1099C0000020FEF7A7FE3A4B06221A70002240F252
:1099D0006661B5E70020FEF767FE354B07221A7077
:1099E00000248CE701202070FEF794FEEEE70120B2
:1099F0002070FEF78FFE00224FF40051A0E7FEF723
:109A00007AFE2B4B0C22EAE72A482B4EFDF711FC7D
:109A1000D5F1110504461CD0D8B9012D13D0C823A7
:109A20005D434FF400474FF47A7000214FF4FA621F
:109A30000023C7FB050102F0EBF9224601461D4851
:109A4000FDF7DFFB04460220FEF72EFE01233370F4
:109A500055E70220FEF734FE0023F8E7FFF716FF74
:109A6000134B1222BBE7FFF711FF0020FEF71CFE8D
:109A70000F4B1322B3E7FFF709FF0120FEF714FE97
:109A80000B4B1422ABE7FFF701FF0020FEF70CFEA3
:109A90000120FEF709FE064B1522A0E7FEF72BFE7C
:109AA000034B1D709CE700BF883800205838002009
:109AB000903800201838002015380020044B1B680F
:109AC000DB0703D5034B1878FFF7F6BE704700BFDE
:109AD0008438002090380020032801D8FEF72CBEDF
:109AE00000207047044B1B6813F0010301D0FFF7FF
:109AF000E3BE1846704700BF8438002038B51C4BC1
:109B000018601C4B10F00204054619601AD01A4B5D
:109B10001A480E221A700F22DA7010229A7111223E
:109B20005A72042140F23332FDF7CEF9044648B9A7
:109B3000FDF720FA044628B90146114A1148FDF7FD
:109B400055FB0446EB0711D50120FEF71BFE6CB94F
:109B500021460D4A0D48FDF749FB044630B9BDE8E2
:109B600038400B4A0B480121FDF740BB204638BD69
:109B7000843800208C38002078380020F4D002008F
:109B80008598020018D10200BD9A02001CD1020083
:109B9000E197020014D10200032811D8012A0AD14A
:109BA00001290FD100F10E02D2B20D4B00EB4000A3
:109BB0001A54002070470129F7D0022904D049B176
:109BC000072070470022F8E7054B00EB40001844DF
:109BD0004270EEE7024B00EB400018448270E8E769
:109BE00078380020032808B512D8FEF7C5FD80009C
:109BF00000F1A040D0F8003723F44033C0F800371C
:109C0000D0F8003743F44033C0F80037002008BDD7
:109C10000620FCE708B5012202210020FFF7BCFF67
:109C200008B1072810D1072202210120FFF7B4FF55
:109C300008B1072808D100210A220846FFF7ACFF27
:109C400010B1072808BF002008BD00000388102BB2
:109C500010B502D0112B1ED010BD1A4C2168B1B91D
:109C600001220846FFF798FF08B1072824D10722F0
:109C700002210120FFF790FF08B107281CD1042220
:109C800002210020FFF788FF08B1072814D12368BC
:109C900001332360E0E70B4A1368013B1360002B9C
:109CA000DAD1FFF7B7FF0028D6D0074B1B68002B8F
:109CB000D2D0BDE810401847034B1B68002BE6D0FC
:109CC0009847E4E79C3800209838002008B5002029
:109CD000FFF788FF08B1062806D10120FFF782FFB1
:109CE00010B1062808BF002008BD00000D4B10B5BC
:109CF00018600C4629B10120FFF7EEFE40B10223A7
:109D00002370094B1B6853B9BDE81040FFF782BFB1
:109D1000FFF7E2FE08B10B23F2E72070F1E7002025
:109D200010BD00BF983800209C38002075DF7047B8
:109D300076DF70477FDF704788DF70478EDF7047C0
:109D40008FDF7047FDF72CB908B5074801F022FCFA
:109D500008B1FDF725F90120FFF7C4FE18B1BDE8F1
:109D60000840FDF71DB908BD583B002001460148D9
:109D700001F0F7BC283B00200388212B13B50446D3
:109D80000FD80F2B11D9103B112B0ED8DFE803F0A1
:109D90000F450D650D0D0D0D0D0D0D572E0D0D6C97
:109DA0000D723B2B6ED0562B6CD002B010BD81884B
:109DB0003748002201F008FE08B1FDF7F1F807204E
:109DC000FFF790FE08B1FDF7EBF8A188314800F0ED
:109DD0002DFE08B1FDF7E4F8A08800220321FFF76B
:109DE000ABFF0028E1D0FDF7DBF8DEE72A4A8088E8
:109DF000511EFFF7A3FF08B1FDF7D2F8274B284803
:109E0000284A2949C01AC0080004537892F9002052
:109E100040F00300FCF7D9FDC7E7204B2048A2889B
:109E20002249C01AC0080004237A40F00300FCF75E
:109E3000CCFD227AA1881E4802F016F9B5E7037A14
:109E4000022BB2D1154B16481A49C01AC00800049B
:109E500040F00300FCF7ACFDA7E700231A4685217C
:109E60008088FFF767FFBCE700F108018088FFF7F3
:109E70005DFFB6E7002301A98088ADF80430FFF745
:109E80005FFFAEE7A0881321FFF752FFA9E700BFED
:109E9000283B0020682A0020413B0020A4C8020083
:109EA000CCC80200403B002020D1020046D1020075
:109EB00074D10200A5D102001FB50378052B12D082
:109EC000062B17D0042B36D11C4B1D481D49C01A38
:109ED000C008000440F00300FCF76AFD04B0BDE8D0
:109EE0001040FFF731BF406828B304B0BDE8104010
:109EF000FDF756B8446811491148A3786278401AB2
:109F0000A17903916179029121790191C008E178E9
:109F1000009100040C4940F00300FCF76CFD6078F0
:109F200023796279A1790290A0780190E07800907D
:109F3000064802F099F804B010BD00BFA4C80200A2
:109F4000CCC802002AD20200C3D10200F1D1020023
:109F500010B504460020FFF7C5FD08B1FDF720F855
:109F600024B9FFF7B3FE08B1FDF71AF8012010BDC0
:109F70000A8840F677239A4213B50C4617D10D4B49
:109F80000D480E49C01AC008000440F003000190BB
:109F9000FCF70EFDA3880A4A0A490198033B9BB2CD
:109FA00013801A4602B0BDE81040FCF70EBD02B0A7
:109FB00010BD00BFA4C80200CCC802003AD2020003
:109FC000662A002056D20200042808B506D00A28C6
:109FD00010D1BDE808400020FEF770B8064B1321F1
:109FE0005888FFF7A5FE30F0080303D0BDE808400D
:109FF000FCF7D6BF08BD00BF283B00202DE9F84381
:10A000000B78012B06460D4626D0022B4DD0002B97
:10A0100059D12E4B2E4C2F49E41AE408240444F065
:10A0200003042046FCF7C4FC698805F10E023046A3
:10A0300001F0CAFC08B1FCF7B3FF304601F042FC66
:10A0400008B1FCF7ADFF20462349FCF7B1FCBDE8A1
:10A05000F843224802F008B81D4C1C4B8E688F89CB
:10A06000DFF88090E41AE408240444F00104002599
:10A07000BD4209D33E4416F8013C0D2B23D10A20E2
:10A08000FDF794FA1128F9E7705DFDF78FFA804625
:10A0900048B11128F8D020462A464946FCF78CFCE6
:10A0A0004046FCF77DFF0135E2E7084B08480C49C4
:10A0B000C01AC008000440F00300FCF779FCBDE8BA
:10A0C000F843FFF741BEBDE8F88300BFA4C8020013
:10A0D000CCC802007ED2020092D20200C0D202009E
:10A0E00010D30200EAD202001FB5102200216846F8
:10A0F00002F031F801230F4A0F488DF80430694609
:10A100008DF80C3001F0F4F908B1FCF749FF0B4A67
:10A110000948022101F094F908B1FCF741FF064813
:10A120000022022101F0D0F908B1FCF739FF05B097
:10A130005DF804FBB99E0200583B002096390020D0
:10A140002DE9FF410378012B044600F0F980022B32
:10A1500000F0E680002B40F0F0807D4C7D4D2088A3
:10A160002844FDF70DFA238801339BB2EA182380B7
:10A1700012F8012C0A2A06D00D2A04D0764A128839
:10A180009A4200F2DA800022EA54724802F038F86B
:10A19000102842D971496F48052201F085FFA8BBFC
:10A1A0006B466C4A00211D46D07B18700131107C33
:10A1B00058700629A2F1020203F10203F4D100262D
:10A1C00028468DF80C6002F01BF8654F81B23246CC
:10A1D000C0F34E002E46BC4693B298424DD811F0C3
:10A1E000010109D015F81030A3F16102052A6ED8DB
:10A1F000573BDBB20CF80030084406280DD1002391
:10A200002380FFF771FFFFF79FFD06E05549514896
:10A21000052201F049FF0028C2D04E4801F0F0FFAE
:10A2200003280FD950494B48042201F03DFF002874
:10A2300054D1002323804D4B4D485A7893F9001098
:10A2400001F012FF434801F0DBFF042855D94949CA
:10A250004048052201F028FF002847D10023238031
:10A26000BFF34F8F4449454BCA6802F4E062134381
:10A27000CB60BFF34F8F00BFFDE73378A3F1610ED2
:10A28000BEF1050F13D8573B5FFA83FE7378A3F135
:10A290006108B8F1050F12D8573BDBB203F00F038A
:10A2A00043EA0E1307F8013B0236013294E7A3F1AB
:10A2B000410EBEF1050F94BF373B303BE4E7A3F1FD
:10A2C0004108B8F1050F94BF373B303BE5E7A3F1F8
:10A2D0004102052A94BF373B303B8AE728491D4895
:10A2E000042201F0E1FE0028A3D0ABE7254919487C
:10A2F000052201F0D9FE0028B0D02378EBB1154D2E
:10A30000214E22882946304601F00EFB082804D051
:10A310001328F6D008B1FCF743FE002323800CE09D
:10A320001A4B1B481B491B1ADB081B0443F0010096
:10A33000FCF73EFB6068FCF733FE04B0BDE8F0813B
:10A34000124B134814491B1ADB081B04EEE700BF2D
:10A3500094390020A0380020662A00201ED3020075
:10A360009639002024D302002AD30200403B00206B
:10A370002FD302005CD3020000ED00E00400FA05D8
:10A3800057D302000FCB0200283B0020CCC80200AC
:10A39000A4C8020062D3020094D3020008B50849A1
:10A3A000084800F011FD08B1FCF7FAFD0548F72157
:10A3B00000F01EFD18B1BDE80840FCF7F1BD08BD76
:10A3C000719F0200443B002000B54FF480418BB0E8
:10A3D0000020FCF759F908B1FCF7E2FDFCF794F80E
:10A3E000FCF7D2FE08B1FCF7DBFD3A4D0FCD04AC13
:10A3F0000FC495E80300384B384A00934FF480733C
:10A4000084E80300CDE902230193354A0723694616
:10A4100004A8FDF75DF808B1FCF7C2FD3149012041
:10A42000FFF76CFB08B1FCF7BBFD04A90020FFF7A8
:10A430005DFC08B1FCF7B4FD0822002104A801F07E
:10A440008AFE294C294B049304A8059400F0B0FA25
:10A4500008B1FCF7A5FDFDF7F5FD08B1FCF7A0FD7F
:10A4600001F00AFB08B1FCF79BFD002304A90120C1
:10A47000049301F08FFB08B1FCF792FD04A801F0F2
:10A480005BFC08B1FCF78CFDFFF788FF184B0493C9
:10A49000184B194804A9CDE9053401F0ADF908B10C
:10A4A000FCF77EFDFFF720FE144801F0DDFD144BA4
:10A4B00014481549C01AC008000440F00300FCF716
:10A4C00077FAFFF741FCFCF72FF90028FBD1FDF7E5
:10A4D000CFFDF8E734D40200A83B0020A83C0020C0
:10A4E00041A10200C99F0200502A00206D9D020078
:10A4F000FD9F0200459D0200283B0020C0D30200C2
:10A50000A4C80200CCC80200FBD302000369C168E2
:10A510008B429DBF8268D21802F1FF3203F1FF33F4
:10A5200094BF501A581A70472DE9F843D0E90294A5
:10A530000546A9EB04084068904520440F461444A2
:10A5400004D901F0DFFDEC60BDE8F8834246A4EBDE
:10A55000090401F0D7FD6868224607EB0801F0E71F
:10A560002DE9F843C5680646894617464FF00008AE
:10A570003469B3687068A54228BFE418013C621BC7
:10A580005C1BBC4228BF3C46944228BF1446494647
:10A590002844224601F0B6FDB3682544AB4208BF0B
:10A5A00000253F1BA044A144F560E1D14046BDE831
:10A5B000F883000010B5114C114AA2610223C4E9CE
:10A5C0000433104BE361A2644FF400730E4A0F4949
:10A5D0002362E26400231022E01DA3626362E3624F
:10A5E000A3656365E365226501F0E8FD084920463F
:10A5F00001F0E4FD2023A37110BD00BFA83D0020A1
:10A6000060D40200303E0020203E002069D40200C9
:10A610006DD40200F8B5184C182300FB033503FB7A
:10A6200000402544C46A012C0F4616460FD0022C68
:10A630001AD0F4B92846FFF769FF864205D832469A
:10A6400039462846FFF770FF34462046F8BD2846B5
:10A65000FFF75CFF8642344628BF0446224639464F
:10A660002846FFF761FFF0E72846BDE8F840FFF70E
:10A6700077BF0024E9E700BFA83D0020FFF79ABF9D
:10A6800030B50B4B19680B4B0022914201D10020D1
:10A6900009E09D788478A54206D11D880488A542EA
:10A6A00002D1054B186830BD01320433EDE700BF1D
:10A6B000384000203C400020304000202DE9F84F79
:10A6C00090F8C6A24FF0760B04460AFB0B008846B2
:10A6D0009146FFF7D5FF074670B3D4F8CC52052D4D
:10A6E0002AD804EBC5165A46A6F8D2920BFB0A41AB
:10A6F00006F5357001F006FDB8F1000F14BF002318
:10A70000022386F8D0320D4BC6F84C731A68013517
:10A710009542C4F8CC521D460ED104F5347600277C
:10A72000F36F304698472B6801379F4206F1800649
:10A73000F6D30023C4F8CC32BDE8F88F38400020AF
:10A7400030B5A1B004460D467C22002101A801F0DD
:10A7500002FD03238DF80430044BADF806501B684E
:10A7600002940BB101A8984721B030BD30400020C1
:10A770002DE9F041074691F8C60276234FF0000814
:10A78000A0B081F8C88200FB03100C461546FFF705
:10A7900077FF064660B17C22414601A801F0DBFC50
:10A7A00001238DF80430ADF80650029701A8B04798
:10A7B00029462046FFF7C4FF20B0BDE8F081000025
:10A7C00030B58BB0044620220D4602A8002101F0CE
:10A7D000C2FC04220DEB0200002101F0BCFC94F845
:10A7E000C53294F8C62213B3013B7621DBB2514344
:10A7F000122000FB031323445B8A01339BB2ADF8A4
:10A800000430762303FB024202A91389ADF8063017
:10A8100003238DF80830019BCDE90543064B0493D3
:10A82000064B2A46186800F0DFFC0BB030BD7623DB
:10A8300003FB0243DB88E2E771A7020054400020DB
:10A84000F0B5044689B020220D466846002101F08B
:10A8500082FC94F8C7321E4A01331268DBB293427D
:10A8600084F8C7324FF000022BD294F8C632194F49
:10A8700084F8C5220133DBB2762113FB01F057F8CF
:10A88000237084F8C6322618275001FB0343327127
:10A890001B68CDF81230104B029302220F4B8DF83B
:10A8A00000200122ADF81020186803942A4669465A
:10A8B00000F09AFC18B12A462146FFF759FF09B06B
:10A8C000F0BD84F8C82229462046FFF739FFF6E795
:10A8D000384000203C40002071A702005440002076
:10A8E0002DE9F047044688B00D4616460021202287
:10A8F000684601F030FC94F8C62294F8C51276231D
:10A9000012FB03F2A018122790F804C017FB0123D2
:10A9100001F1010E0A33E645234411D004F11C096C
:10A9200000F1220E0CF1FF389144CAB294450BD9C4
:10A9300088451B890ED102899A421BD1002312E05F
:10A940001B890289934215D101232B70002008B086
:10A95000BDE8F08707FB01FA01333EF80A20934275
:10A960001DD109EB0A0394F8C522013284F8C522EF
:10A970000131DAE701339BB2ADF810300A4B029394
:10A9800000210A4B297004218DF80010ADF8122027
:10A99000186803943246694600F026FCD7E7013A6E
:10A9A0009BB292B2E8E700BF71A7020054400020BA
:10A9B00010B570B1026862B1436853B10649002016
:10A9C0000860064901240C7005490A60054A1360B5
:10A9D00010BD0E20FCE700BF3840002034400020AE
:10A9E000304000205440002010B5044680B10C4B8C
:10A9F0001B787BB1FFF744FE70B90A4A1368052B38
:10AA00000CD80949246841F823400133136010BD74
:10AA10000E20FCE70820FAE70020F8E70420F6E71C
:10AA200034400020384000203C400020F0B50D4666
:10AA30008BB0044600283BD0204B1B78002B39D02C
:10AA40001F4B1B68002B35D090F8C812002933D15A
:10AA50004FF4BA621B4F019101F07DFB0199202256
:10AA600002A801F078FB3868294600F05DFCE8B9DF
:10AA7000154BC4F8CC0284F8C502A4F8C6021868C5
:10AA8000206002238DF808300126104BCDF81A0003
:10AA9000A4F8CA523868ADF818602A4602A905948D
:10AAA000049300F0A1FB08B984F8C8620BB0F0BDB4
:10AAB0000E20FBE70820F9E71120F7E734400020DB
:10AAC00038400020544000203C40002071A7020084
:10AAD0002DE9FF410C46054660B159B1904B1B78FA
:10AAE00043B10388322B64D007D8112B00F00A81C0
:10AAF000302B20D004B0BDE8F081332BFAD182880E
:10AB0000B1F8CA329342F5D1C68891F8C6C291F81D
:10AB1000C572002E00F0C080762101FB0C4C002392
:10AB20009CF804108DF80F307B1C8B4200F0E48001
:10AB300084F8C532A2E08388B1F8CA229A42D9D1FA
:10AB4000C3886BBB91F8C632762202FB03130269FD
:10AB5000C3F8062091F8C432827A1344062B0CDC29
:10AB600081F8C432A9882046FFF72AFE0028C1D008
:10AB7000AA882146FFF7FCFDBCE7062381F8C43212
:10AB80006848694B6949C01AC008000440F00200D7
:10AB90000190FBF70DFF66490198FBF709FFE1E71C
:10ABA00000212046FFF78AFDA9882046FFF748FECE
:10ABB000A0E78288B1F8CA329A429BD1C388002BA1
:10ABC00058D191F8C672762317FB03F701EB0708FB
:10ABD000837A98F804603344062B26DC88F8043026
:10ABE000334603EBC30207EB420205F10C06224495
:10ABF000002198F80400834206F10A0602F11202CD
:10AC000027D31222013B02FB034394F8C62276218C
:10AC10003B4401FB0242598A138999422AD20628F1
:10AC200028D0A98884F8C5029DE7062388F8043057
:10AC30003C483D4BCA5B3F49C01AC008000440F085
:10AC400002000190FBF7B8FE3B490198FBF7B0FE0C
:10AC5000C6E73046013350F80ACD42F808CCD0F8A8
:10AC600004C042F804CC0089108051809180D180CA
:10AC70001181BEE7002384F8C532AA880DF10F01C7
:10AC80002046FFF72DFE00287FF472AF9DF80F30AD
:10AC9000002B3FF42FAF32E0762303FB0CF112239D
:10ACA00003FB0713B0F80AE023447645BFF434AF42
:10ACB000C189A1F52451082908D8DFE801F014174B
:10ACC0000507070707071A0081899982998A39B110
:10ACD000D98A29B1198B19B1598B00297FF41CAF7E
:10ACE00001360630E1E78189D982EFE7818919834E
:10ACF000ECE781895983E9E701238DF80F30AA88B1
:10AD000001214EE7B1F8CA3282889A4201BF00237E
:10AD100081F8C8324FF6FF73A1F8CA32EAE600BFE5
:10AD200034400020E4C80200A4C8020074D4020029
:10AD300093D40200D8D402001ED5020090DF7047E1
:10AD4000A5DF7047B5DF70477FB50023ADF8081069
:10AD5000ADF80A106A4602A9064603930093ADF8BF
:10AD60000430FFF7EBFF054600B3124B124CE41A18
:10AD7000E408FDF71BFB240444F0010403460F49DB
:10AD800032462046FBF721FEBDF80020BDF8023018
:10AD900052EA030103D00A492046FBF716FEBDF82C
:10ADA00004201AB107492046FBF706FE284604B0E6
:10ADB00070BD00BFA4C8020004C9020084D502000F
:10ADC000CED502000DD6020080B14FF0F71303601C
:10ADD000FB230371F723C3801723038141F6FB3262
:10ADE0000023016143818281184670470E2070471D
:10ADF00030B1A1F11703E02B04D841800020704747
:10AE00000E2070470720704713B5034680880C4614
:10AE1000B8B91A88242A00F0968014D8112A71D063
:10AE2000232A00F09E80102A3BD0A37A4BB1E18800
:10AE30000020FFF785FF002840F099804FF48073D1
:10AE4000638102B010BD3A2A65D0552AEDD1DB8866
:10AE5000C988A072172B38BF17238B4228BF0B4617
:10AE60002381FFF76FFF60B1FDF7A0FA484B494916
:10AE7000024649481B1ADB081B0443F00100FBF79C
:10AE80009BFDE37A002BD0D12369002BCDD040F677
:10AE9000772200922289ADF804206946204698471F
:10AEA000C3E7DB7B0A790A73012B13D0022B14D082
:10AEB000E18823898B4205D20020FFF741FF70B95A
:10AEC0000123E372217B637B8B42AED20020FFF72C
:10AED0003BFFAAE70B88E380EAE74B88FBE71128F2
:10AEE00002D10123A372EDE7FDF760FA284B2B494D
:10AEF000024629481B1ADB081B0443F00100FBF73C
:10AF00005BFDDFE7F723CB8017230B8141F6FB3393
:10AF100048818B8189E75B89CA88934228BF1346A1
:10AF2000172B0A6938BF17230B814AB1C97A39B187
:10AF300040F677210091ADF80430694620469047ED
:10AF40000023638171E71A7A0B694A73002B3FF47F
:10AF50006CAF4DF67A218DF8050000918DF8042034
:10AF60009BE7197A237B994228BF1946AFE711283E
:10AF70003FF467AFFDF71AFA054B08490246064849
:10AF80001B1ADB081B0443F00100FBF715FD58E713
:10AF900004C9020094D60200A4C8020063D60200CD
:10AFA0009BDF70479DDF70479EDF7047A1DF7047D2
:10AFB000A3DF7047AEDF704730B5048800239AB234
:10AFC000944206D9456835F813508D4203F10103C8
:10AFD000F5D1104630BD8B6910B50C461988102983
:10AFE00012D80231FCF7D3FF606078B1A169002369
:10AFF0000222FDF70EF8A26960681288E169022357
:10B00000FDF707F8002010BD0920FCE70420FAE74F
:10B0100010B50C46C98A10290AD8FCF7B8FF606041
:10B0200040B1E28AA1690023FCF7F3FF002010BDC4
:10B030000920FCE70420FAE7F0B58BB000220446B3
:10B040000DF10601C068124EFDF707F914250246FE
:10B050000AB10BB0F0BDBDF80670A36805FB073759
:10B0600002A93846FDF7F9F838B10022E0680DF181
:10B070000601FDF7F2F80246EAE79DF8083056F8B7
:10B08000233013B10398FCF76CFF0022E8E700BF00
:10B0900040D70200F7B505460C4C0D480092241A23
:10B0A000E40824040B460F4616460A492A7844F061
:10B0B0000100FBF794FCAB6833B1E9683A463046CF
:10B0C00003B0BDE8F040184703B0F0BD0CC9020062
:10B0D000A4C80200D0D60200F0B58FB00D46012200
:10B0E00006A90646FDF7B9F8044690B99DF8183050
:10B0F000052B65D8DFE803F0030F1C24292EBDF8CB
:10B100002A20BDF828102846FFF750FF0446112CCE
:10B1100040D10FB0F0BD02A90798BDF82E200C91C8
:10B120000023FCF780FF0AA92846FFF741FFEDE75F
:10B13000BDF828100DF12A022846FFF731FFE5E798
:10B140000AA92846FFF72EFFE0E70AA92846FFF7DD
:10B150002BFFDBE70DF1060402AB214607980D93A8
:10B1600002220023FCF75FFFBDF806200D99079827
:10B170000C940223FCF757FF0AA92846BDF8067075
:10B18000FFF718FF04460028C1D1BDF80630BB42C6
:10B1900018BF0C249DF818200F4B53F8223013B120
:10B1A0000798FCF7DEFE002206A93046FDF755F8A9
:10B1B000002CAED02246294606A8FFF76BFFA8E771
:10B1C0000648074B07491B1ADB081B0443F0020023
:10B1D000FBF7EEFBDEE700BF40D70200A4C8020089
:10B1E0000CC902001AD702002DE9F8430F46144695
:10B1F000054620B94FF00E084046BDE8F883002907
:10B20000F8D0FFF719FF3B78052B6AD8214628466E
:10B21000FFF7D2FE2B88834263D014264643A868EA
:10B220003044FDF713F8002860D03B78052B3BD85D
:10B23000DFE803F00311171E242A7A8A398A204690
:10B24000FFF7B4FE112851D058B3024621463846C4
:10B25000FFF720FF25E007F110012046FFF7A8FEC9
:10B26000F0E7398A07F112022046FFF799FEE9E775
:10B2700007F110012046FFF795FEE3E707F1100103
:10B280002046FFF791FEDDE7BB6907F1100120467C
:10B29000B3F80080FFF78EFE30BBBB691B884345C7
:10B2A0000DD14FF00008A7E71B4B1C481C49C01AE2
:10B2B000C008000440F00200FBF77AFBF1E70C2025
:10B2C000C3E72869002895D0394698478046A0B141
:10B2D00092E73B7859F82330BBB17868FCF741FE20
:10B2E00013E04FF0070887E71128AED10D4A3B78ED
:10B2F00052F823309146002BE3D1A86839463044F8
:10B30000FCF74EFF80460028E3D1A8682146304470
:10B31000FFF7E2FE70E700BFA4C802000CC90200FC
:10B320001AD7020040D70200F8B50D46044678B39C
:10B33000FFF782FE29462046FFF73EFE2288824222
:10B3400011D00020F8BD616831F81310814203F17B
:10B3500001030BD0208800234FF6FF769AB2824279
:10B360000BD30420EEE700234FF6FF7099B28A4218
:10B37000E9D82069FCF7F3FDECE761685A0001EBBE
:10B3800043078A5AB24203F10103E7D13D80D8E76F
:10B390000E20D7E737B50C4608B301B30588112D49
:10B3A00015D181882046FFF707FE2388ADF80600F7
:10B3B000834214D0112D14D163684FF6FF7223F825
:10B3C00010200DF10601E068FCF7EAFE07E0A5F1A8
:10B3D00030031F2BE5D9A5F150031F2BE1D903B092
:10B3E00030BDA368142202FB0030FFF775FEF6E7BC
:10B3F0008ADF70478BDF70478CDF704730B5837A08
:10B4000089B004460D46CBB1037D0193FFF7F2FFEF
:10B410001422002103A800F09EFE019B04F10C02FF
:10B4200004F11601A81CFFF7E7FF05238DF80C3087
:10B43000049018B1636A0BB103A8984709B030BDF6
:10B4400037B515460446002838D0002A36D00229E0
:10B4500036D1C37983BB06222946013000F0D1FDE5
:10B4600040B3AB1D6A4613F8011D02F8011BAB4245
:10B47000F9D19DF800309B09013BDBB2022B9CBF48
:10B48000104AD15CE379C3EBC30388BF0321E25CBC
:10B4900061F34702E2540022E379A95CC3EBC303E2
:10B4A000234413440132062A5970F5D1E37901335C
:10B4B000E371002003B030BD0420FBE70E20F9E764
:10B4C0000720F7E785D7020050B1CB060AD011F06C
:10B4D000020116BF012301720372427200207047FD
:10B4E0000E20704707207047807DC0F3C000704772
:10B4F00038B50D460446002846D0426200210A2293
:10B5000000F029FE85B32B79A3722B7B23752B6862
:10B51000D3B104F1160203F10C0153F8040B42F805
:10B52000040B8B42F9D11B881380AA68B2B1106852
:10B53000516804F10C0303C304F12803A3641F231F
:10B54000A4F84C30002038BDE28AA38302F0E30265
:10B5500042F48272E2820D4AA261E6E70C494FF0A2
:10B56000C873C4E90313E7E7E38A094AA58303F034
:10B57000E30343F48273E382044BA3614FF0C87387
:10B58000C4E90323A572D7E70E20DCE7A000500032
:10B590000600180010B5044686B048B314220021F6
:10B5A00001A800F0D8FDFFF725FF2046FFF79CFF1C
:10B5B00030B1636A23B101228DF8042001A89847B5
:10B5C00004F1480104F11600FFF712FF044630F0C1
:10B5D00008000BD00748084B08491B1ADB081B045E
:10B5E00043F001002246FBF7E7F9204606B010BD04
:10B5F0000E20FBE7A4C80200F4C8020058D70200DE
:10B600002DE9F04F054689B035F8083B1B2B07465E
:10B610000C4600F08B801D2B15D0102B30D114223E
:10B62000002103A800F097FD06238DF80C30BB889D
:10B63000ADF8143004F116030793636A0495002BE8
:10B6400040F086801CE01422002103A800F083FD56
:10B6500004F1160320460793FFF746FF04F1480A5A
:10B6600088B102238DF80C3003A8636A04959847CB
:10B6700051460020FFF7BCFE29462046FFF7BEFEDC
:10B6800009B0BDE8F08F94F8088094F809B0B8F1DB
:10B69000000F3ED0E379A146064607F10B01F2B256
:10B6A000934203D84FF00008434617E0BA7A99F85E
:10B6B00000005208B2EB500F27D1062209F1010019
:10B6C0000193009100F09DFCDDE90013E8B99DF8BD
:10B6D000143043F002038DF8143001230122049545
:10B6E000BBF1000F18D09A421CD100238DF80C300A
:10B6F00029462046FFF782FE636A0BB103A89847EC
:10B7000051460020FFF774FEBAE7013609F1070938
:10B71000C5E743464246E2E7B8F1000F02D08DF894
:10B720000CB0E5E703238DF80C30E5E71422002187
:10B7300003A800F010FD3A7A012AA1D1636A002B18
:10B740009ED0042116348DF80C1007948DF810202B
:10B7500003A8984794E762DF70470B6903B1184765
:10B760007047F0B50C4687B014220546002101A8A9
:10B7700000F0F1FC227852BBA388012B27D1A179DC
:10B780002B78994223D194F808C0BDF81260BDF817
:10B790001400BDF81670122111FB0C41234694468B
:10B7A000994216D1BCF1000F01D0ADF816701AB154
:10B7B000ADF81260ADF81400EB6843B16288ADF8E3
:10B7C000062000228DF8042001A92846984707B0DA
:10B7D000F0BDB3F80EE0BEF1020F04D0BEF1030FCE
:10B7E00005D01233DCE7DF8A4FF0010CF9E7DE8A7F
:10B7F000188B0122F5E70000F0B5184B87B002AABC
:10B8000004460D4603F1100C174618685968164691
:10B8100003C6083363453246F7D1ECB1E5B1AB68F6
:10B82000D3B121463846FFF796FF98B923788DF8B3
:10B8300006300123ADF804304FF6FF7363802B68A8
:10B84000E3606B682361AB68A0802081636101A81D
:10B85000FFF7CAF807B0F0BD0E20FBE7BFD7020024
:10B8600010B5034686B00846F9B1F3B149884FF6E2
:10B87000FF72914219D09C888C4216D119881129E7
:10B8800015D0392911D182887AB1598991420CD1C8
:10B89000C26852B101218DF8041003F11001DB8957
:10B8A0000391ADF8103001A9904706B010BDC368F0
:10B8B000002BFAD002218DF80410428001A998478C
:10B8C000F3E7000010B504468AB030B342884FF663
:10B8D000FF739A4223D0C3880BB32022002102A811
:10B8E00000F039FC0123ADF804308DF808300D4B21
:10B8F00062886069CDE90434E388ADF81A304FF40A
:10B900000033079301AB089302A940F20113ADF88D
:10B910001830FFF769FC0AB010BD0E20FBE70820C5
:10B92000F9E700BF5BB7020070B50E4688B0154658
:10B93000044600283CD020220021684600F00BFC81
:10B94000F42D0CD91B4B1C481C49C01AC00800041C
:10B9500040F00200FBF72CF8072008B070BD6288A9
:10B960004FF6FF739A420BD1124B13481449C01A79
:10B97000C008000440F00200FBF71AF80820ECE7CA
:10B9800001238DF800300F4B6069ADF81650CDE9FA
:10B9900002342389ADF812300023ADF81430694623
:10B9A0004FF481730696ADF81030FFF71DFCD4E715
:10B9B0000E20D2E7A4C80200ECC8020088D702001B
:10B9C0009AD702005BB7020050B141802AB1538878
:10B9D000C38013888380938803814069FFF7A4BCE8
:10B9E0000E20704710DF704713B5044609496846BA
:10B9F000FCF781FC019808B902B010BDD0E9002124
:10BA00002046904718B16846FCF77FFCF2E711200A
:10BA1000F2E700BFDCD7020013B5044607496846C9
:10BA2000FCF769FC019B0BB902B010BD2046D3E9BD
:10BA3000002190476846FCF768FCF3E7F4D7020062
:10BA40000B4991F816335A09EC231341DB0706D54D
:10BA5000084B9A683AB94FF480030B60704742F282
:10BA60000200FBF79DBA1A6842F480021A60704720
:10BA700000E100E010370020F7B5194F3C7864BBB7
:10BA8000184E012520463570FFF7AEFF112821D052
:10BA90002046FFF7C1FF144B8DF803401868019052
:10BAA0000DF10300FBF7AAFD104901A8FFF79AFF6B
:10BAB0000446B0FA80F0400938709DF80300FBF7A7
:10BAC000C1FD3CB90A4B34701C70FFF7B9FF284622
:10BAD000FFF7A2FF204603B0F0BD0824FAE700BF3D
